:03000000020006F5
:0C000600787FE4F6D8FD75810802004DFB
:0300B10001080043
:0B00A600D2AFD2A8D2888508A080FB52
:0300030002009266
:10009200C0E0C0D0E508F4600674052508F508D074
:0400A200D0D0E032A8
:100012000200A6E493A3F8E493A34003F68001F25E
:1000220008DFF48029E493A3F85407240CC8C333EF
:10003200C4540F4420C8834004F456800146F6DFBE
:10004200E4800B01020408102040809000B1E47E9D
:10005200019360BCA3FF543F30E509541FFEE493B3
:10006200A360010ECF54C025E060A840B8E493A37A
:10007200FAE493A3F8E493A3C8C582C8CAC583CAA5
:10008200F0A3C8C582C8CAC583CADFE9DEE780BE5D
:0100B400004B
:00000001FF
