:0F00C20060DAF266B6BEE0FEF6EE3E9C7A9E8EE7
:0300D10001080023
:10008F007D077C00C3ED9FEC9E5015E4FBFA0BBB84
:10009F0000010AEB647C4A70F50DBD00010C80E491
:0100AF00222E
:1000B000A2949290A2959291A2969292A2979293D4
:0200C00080EED0
:03000000020003F8
:0C000300787FE4F6D8FD75810802004A01
:10000F000200B0E493A3F8E493A34003F68001F257
:10001F0008DFF48029E493A3F85407240CC8C333F2
:10002F00C4540F4420C8834004F456800146F6DFC1
:10003F00E4800B01020408102040809000D1E47E80
:10004F00019360BCA3FF543F30E509541FFEE493B6
:10005F00A360010ECF54C025E060A840B8E493A37D
:10006F00FAE493A3F8E493A3C8C582C8CAC583CAA8
:10007F00F0A3C8C582C8CAC583CADFE9DEE780BE60
:0100D400002B
:00000001FF
