:10004B00EEDEBE7EEDDDBD7DEBDBBB7BE7D7B777B1
:10005B003F065B4F666D7D077F6F777C395E7971ED
:0E006B007F507EC3EF1FAC0670011E4C70F676
:010079002264
:0E007A007F107E27EF1FAC0670011E4C70F643
:010088002255
:10000300C2A6C2A775B0F0E5B064F060F312007A3F
:10001300E5B064F060EAAFB075B00FE5B04FFFE450
:10002300FEEE90004B93B50704AD0680040EBE10A0
:10003300F0E4F580D2A7C2A7ED90005B93F580D2E0
:08004300A612006BC2A680B8F2
:0300000002008972
:0C008900787FE4F6D8FD758107020003C3
:00000001FF
