:0A013A003F065B4F666D7D077F6F87
:0900F60093F580D2A6C2A67F0595
:1000FF00750A008F0BD3E50B9400E50A9400401EA0
:10010F00750C00750D7DE50D150D7002150CE50DC7
:0F011F00450C70F2E50B150B70DB150A80D7222B
:1000A800C2A7C2A675807ED2A7C2A7EF90013A1256
:1000B80000F6C2A7C2A675807ED2A7C2A7758080A7
:1000C800D2A6C2A61200FFC2A7C2A675807DD2A77B
:1000D800C2A7ED1200F6C2A7C2A675807BD2A7C23E
:0E00E800A7EB93F580D2A6C2A67F050200FF0B
:10005800C2B600D2B6C2B7AF90EF75F002A485F071
:1000680008F509C2B77F0A1200FFAE08AF097C0085
:100078007D641200038F0EAE08AF097C007D641208
:100088000003AF05EF75F00A84FEEF75F00A84AC43
:10009800F07A0AAD06AB04AF0E1200A8DAF580B00C
:0300000002012ECC
:0C012E00787FE4F6D8FD75810E020058C1
:10000300BC000BBE0029EF8DF084FFADF022E4CCE1
:10001300F875F008EF2FFFEE33FEEC33FCEE9DECAA
:10002300984005FCEE9DFE0FD5F0E9E4CEFD22EDF0
:10003300F8F5F0EE8420D21CFEADF075F008EF2F3A
:10004300FFED33FD4007985006D5F0F222C398FD2B
:050053000FD5F0EA22C8
:00000001FF
