:1000930020202049204C4F5645204E4555512100E4
:0F0047008F807F057E00120056D2B47F057E00A9
:10005600D3EF9400EE940040147D6E7C00ED1D708D
:0D006600011CED4C70F7EF1F70E61E80E3EB
:01007300226A
:0800AF00C2B5120047C2B422E1
:0800B700D2B5120047C2B422C9
:10007400C2A6C2A7C2B47F381200AF7F0E1200AF6F
:0F0084007F061200AF7F011200AF7F900200AF26
:100003001200747F011200AF7FD81200AFE4F5082D
:10001300E50890009393FF1200B77F147E0012004F
:10002300560508E508C3940D40E6E4F5087F181269
:1000330000AF7F147E001200560508E508C3941034
:0400430040EB80FE10
:030000000200A358
:0C00A300787FE4F6D8FD758108020003A8
:00000001FF
