:0A0120003F065B4F666D7D077F6FA1
:1000E6008E0E8F0FD3E50F9400E50E9400401E751B
:1000F600100075117DE511151170021510E51145F9
:0E0106001070F2E50F150F70DB150E80D7227A
:1000B100C2A7C2A67580FED2A7C2A7EF9001209366
:1000C100F580D2A6C2A67F057E001200E6C2A7C2B5
:1000D100A67580FDD2A7C2A7ED93F580D2A6C2A6D0
:0500E1007F050200E6AE
:10000300E4F508F509E509643C45087004F508F5CD
:1000130009AE08AF097C007D0A12005C8E128F13B3
:10002300AE08AF097C007D0A12005C8C148D157537
:100033000A00750B32AF13AD151200B1E50B150BAA
:100043007002150AD3E50B9400E50A940050E60507
:0900530009E50970B0050880AC54
:03000000020114E6
:0C011400787FE4F6D8FD75811502000329
:10005C00BC000BBE0029EF8DF084FFADF022E4CC88
:10006C00F875F008EF2FFFEE33FEEC33FCEE9DEC51
:10007C00984005FCEE9DFE0FD5F0E9E4CEFD22ED97
:10008C00F8F5F0EE8420D21CFEADF075F008EF2FE1
:10009C00FFED33FD4007985006D5F0F222C398FDD2
:0500AC000FD5F0EA226F
:00000001FF
