:10014A0080828486888A8C81838587898B8DFC60EE
:08015A00DAF266B6BEE0FEF623
:100179000708010101090502120711010101090519
:02018900021260
:0D01320075F00A84E5F093F5907FF47E01EE
:0B013F00EF1FAC0670011E4C70F62292
:10019E00E4FEEFC313FFC2B192B2D2B10EBE08F2AB
:0101AE00222E
:10018C00E4FFC313A2B292E7D2B1C2B10FBF08F21F
:01019C00FF63
:01019D00223F
:1001AF00C2B0C2B1D2B012019EAF0512019EC2B051
:0101BF00221D
:10016200C2B0C2B1D2B0EF4401FF12019E12018CA3
:06017200D2B1C2B07E0014
:010178002264
:1000E5007D80E4FCAF05120162AE07EFC313540F28
:1000F500FB74082CF8A603EEC4135407FB74112CEB
:09010500F8A6030D0D0CBC07DB8C
:01010E0022CE
:10010F00E4FD7F8E1201AFE4FCEC90014A93FF7483
:10011F00082CF8E6FD1201AF0CBC07ED7D807F8E39
:03012F000201AF1B
:10008F00C2B012010F1200E575A0FEE50875F00A67
:10009F0084E5F090015812013875A0FDE5111201A9
:1000AF003275A0FB75900212013B75A0F7E509129E
:1000BF00013275A0EFE51212013275A0DF759002C3
:1000CF0012013B75A0BFE50A12013275A07FE5133F
:0600DF0012013202009440
:03000000020003F8
:0C000300787FE4F6D8FD75811702004AF2
:10000F0002008FE493A3F8E493A34003F68001F278
:10001F0008DFF48029E493A3F85407240CC8C333F2
:10002F00C4540F4420C8834004F456800146F6DFC1
:10003F00E4800B0102040810204080900179E47ED7
:10004F00019360BCA3FF543F30E509541FFEE493B6
:10005F00A360010ECF54C025E060A840B8E493A37D
:10006F00FAE493A3F8E493A3C8C582C8CAC583CAA8
:10007F00F0A3C8C582C8CAC583CADFE9DEE780BE60
:01018B000073
:00000001FF
