:1001F900FC60DAF266B6BEE0FEF6EE3E9C7A9E8EB2
:08020900FEFDFBF7EFDFBF7FF4
:0702110093F5907FEE7E02E1
:0B021800EF1FAC0670011E4C70F622B8
:10018C00E4FDD2B07F08FE120218C2B07F507E0090
:10019C00120218D2B07F0E7E00120218A2B0E43305
:0801AC00FD7F147E0002021821
:1001B400E4FDF508C2B0EDC313FDD2B030B0034383
:1001C40005807F047E001202180508E508C3940820
:0401D40040E2AF0551
:0101D8002204
:1001D900AD07E4F508C2B0EDC313FD92B07F057E0B
:1001E90000120218D2B00508E508C3940840E622B7
:1001600012018C7FCC1201D97F441201D97F0A7E03
:100170000012021812018C7FCC1201D97FBE12012D
:0C018000D91201B48F091201B48F0A22B9
:10000300120160E509540FFB7A00E50AD3947F409F
:1000130012D2006309FF630AFFE509540FFB0BBB10
:1000230000010A7C027D71AF03AE021200F9AA0639
:10003300AB075309F0E509C4540FF509E50AC454A5
:10004300F0F50A2509F5093000020509E4F508E58C
:100053000890020993F5A07C007D0AAF03AE02125B
:10006300010B74F92DF58274013CF583E41202113E
:100073007C007D0AAF03AE0212010BAA06AB070593
:1000830008E508C3940440C775A0EFE50975F00AB5
:1000930084E5F09001F993F590D290120214E509EA
:1000A30075F064847008E50975F00A84601575A01D
:1000B300DFE50975F00A8475F00A84E5F09001F92B
:1000C300120211E50975F06484FF601675A0BF750F
:1000D300F00A84E5F09001F993F5907F207E0312F6
:1000E300021820000302000375A07F75900212021C
:0600F30014C2000200032C
:03000000020223D6
:0C022300787FE4F6D8FD7581200200030E
:1000F900EF8DF0A4A8F0CF8CF0A428CE8DF0A42E1B
:02010900FE22D4
:10010B00BC000BBE0029EF8DF084FFADF022E4CCD8
:10011B00F875F008EF2FFFEE33FEEC33FCEE9DECA1
:10012B00984005FCEE9DFE0FD5F0E9E4CEFD22EDE7
:10013B00F8F5F0EE8420D21CFEADF075F008EF2F31
:10014B00FFED33FD4007985006D5F0F222C398FD22
:05015B000FD5F0EA22BF
:00000001FF
