:0A0006003F065B4F666D7D077F6FBC
:03013D00010800B6
:10011C00EFD39400400B7E8E7D02DDFEDEFA1F8055
:01012C00EFE3
:01012D0022AF
:030003000200A256
:1000A200C0E0C083C082C0D075D000C005C006C009
:1000B20007C2A87F1412011CD2A8E508B40A05756C
:1000C2000800800BAF080508EF90000693F590D06A
:0E00D20007D006D005D0D0D082D083D0E03247
:030013000200E008
:1000E000C0E0C083C082C0D075D000C005C006C0CB
:1000F00007C2AA7F1412011CD2AAE5087005750870
:100100000A800A1508E50890000693F590D007D0FC
:0C01100006D005D0D0D082D083D0E032E1
:0F012E00E4F590D2AFD2A8D288D2AAD28A80FEAE
:03000000020016E5
:0C001600787FE4F6D8FD75810802005DDB
:1000220002012EE493A3F8E493A34003F68001F2C5
:1000320008DFF48029E493A3F85407240CC8C333DF
:10004200C4540F4420C8834004F456800146F6DFAE
:10005200E4800B010204081020408090013DE47E00
:10006200019360BCA3FF543F30E509541FFEE493A3
:10007200A360010ECF54C025E060A840B8E493A36A
:10008200FAE493A3F8E493A3C8C582C8CAC583CA95
:10009200F0A3C8C582C8CAC583CADFE9DEE780BE4D
:0101400000BE
:00000001FF
