:10037500FC60DAF266B6BEE0FEF6EE3E9C7A9E8E34
:1003550012026874752DF58274033CF583E493F5F8
:05036500907FF47E0111
:0B036A00EF1FAC0670011E4C70F62265
:1002CB00C2B0C2B2D2B0C2B030B1FDD2B2AF80AB0D
:1002DB00077A00AD037C00E41201AEE4FBFA797FF0
:1002EB00784312010CE4FBFA79FA784312000312FB
:1002FB0001E7AA06AB07C2B275A0FE7C007D0AAF70
:10030B0003AE0212035575A0FD7C007D0AAF03AE50
:10031B00021202687C007D0A12035575A0FB7C005B
:10032B007D64AF03AE021202687C007D0A12026884
:10033B0074752DF58274033CF583E493F590D2909C
:0A034B00120366D2B0C2B00202D362
:10000300EC4D6011E8497017ED33EC3304600DE4F7
:10001300FCFFFEFD22E933E8330470F802025312B9
:10002300021E58046009E4CC2481500628500902BA
:10003300025D28400302025AC0E0EB4A7044B980D3
:1000430006D0E0FB020249EF4E701CBD8008EBFFB7
:10005300EAFEE9FD80EBE98DF0A4FEE5F00200EC99
:10006300E9CDF9EAFEEBFFEF89F0A4FCE5F0CE89D8
:10007300F0A42EFFE435F0CD89F0A42DFEE435F095
:100083008067EF4E7005BD80D780C3EF8BF0A4ACC3
:10009300F0EE8BF0A42CFCE435F0F8EF8AF0A42CFE
:1000A300E5F038FCE433CB8DF0A42CFCE5F03BF811
:1000B300EE8AF0A42CFCE5F038F8E433CF89F0A401
:1000C3002CFCE5F038CF3400CE89F0A42FFFE5F007
:1000D3003EFEE433C98DF0A42EFEE5F039CD8AF05F
:1000E300A42FFFE5F03EFEE43DFD33D0E0FB5007D7
:1000F3000BBB000F02025DEC2CFCEF33FFEE33FE73
:06010300ED33FD020235A0
:1001090002025DEC5D046005E859047003020253C4
:1001190012021E580460F6EC4860F2EC7004FDFE11
:10012900FF22C860DB2481C85009C39860025006C9
:1001390002025A9850CAF582E9294B4A7005AB82E6
:1001490002024975F0007C1A7880C3EF9BEE9AEDA4
:1001590099400DC3EF9BFFEE9AFEED99FDE842F041
:10016900DC23ACF0D0E0FFD0E0FED0E0FDAB822094
:10017900E7101BEB60BAEC2CFCEF33FFEE33FEED1E
:1001890033FD020235E803F830E705C0F075F000E9
:10019900EF2FFFEE33FEED33FD40B830E7C280AA02
:1001A90075F020800E75F010800575F0087D007ED1
:1001B900007F003392D530D5031202BDEC334010D5
:1001C900EF33FFEE33FEED33FDEC33FCD5F0ED22DA
:0E01D900E5F0247EA2D513CC92E7CDCEFF2216
:1001E700EDD2E7CD33EC3392D524814006E4FFFE10
:1001F700FDFC22FCE4CFCECDCC24E0501174FF806F
:10020700EDC3CC13CCCD13CDCE13CECF13CF04700B
:07021700F030D5DE0202BD4C
:10021E00E9D2E7C933E833F892D5EDD2E7CD33EC26
:07022E0033FC5002B2D5229F
:10023500EC30E7100FBF000C0EBE00080DBD00042A
:100245000BEB6014A2D5EB13FCED92E7FD2274FFD6
:10025500FCFDFEFF22E480F8A2D574FF13FC7D802F
:03026500E480EF43
:0300000002038573
:0C038500787FE4F6D8FD7581070202CBFA
:10026800BC000BBE0029EF8DF084FFADF022E4CC7A
:10027800F875F008EF2FFFEE33FEEC33FCEE9DEC43
:10028800984005FCEE9DFE0FD5F0E9E4CEFD22ED89
:10029800F8F5F0EE8420D21CFEADF075F008EF2FD3
:1002A800FFED33FD4007985006D5F0F222C398FDC4
:0502B8000FD5F0EA2261
:0E02BD00C3E49FFFE49EFEE49DFDE49CFC2252
:00000001FF
