:03000000020006F5
:0C000600787FE4F6D8FD75810802004DFB
:0300E10001080013
:10009200AD071FED60137E13EED3940040F27D1482
:0900A2007C82DCFEDDFA1E80EF19
:0100AB002232
:1000C100AB07C2A0C3740A9BFF120092D2A0AF0378
:0300D10002009298
:0D00D400D2AFD2A8D288AF081200C180F9C7
:030003000200AC4C
:1000AC00C0E0C0D0E508B40A0575080A800205084E
:0500BC00D0D0D0E032BD
:100012000200D4E493A3F8E493A34003F68001F230
:1000220008DFF48029E493A3F85407240CC8C333EF
:10003200C4540F4420C8834004F456800146F6DFBE
:10004200E4800B01020408102040809000E1E47E6D
:10005200019360BCA3FF543F30E509541FFEE493B3
:10006200A360010ECF54C025E060A840B8E493A37A
:10007200FAE493A3F8E493A3C8C582C8CAC583CAA5
:10008200F0A3C8C582C8CAC583CADFE9DEE780BE5D
:0100E400001B
:00000001FF
