:0D0098007590007FC81200A57590FF7FC80D
:1000A500EFD39400400B7E8E7D02DDFEDEFA1F80CD
:0100B500EF5B
:0100B6002227
:03000300020016E2
:10001600C0E0C0D075D000C005C006C007C2A87F2A
:10002600141200A5D2A87590FE7FC81200A575907F
:10003600FD7FC81200A57590FB7FC81200A57590BC
:10004600F77FC81200A57590EF7FC81200A57590BE
:10005600DF7FC81200A57590BF7FC81200A57590F6
:080066007F7FC81200A580BED7
:0300130002006E7A
:10006E00C0E0C0D075D000C005C006C007C2AA7FD0
:10007E00141200A5D2AA1200A0120098120098D055
:0A008E0007D006D005D0D0D0E03234
:1000B700E4F590D2A875B804D288D2AAD28AD2AF72
:0200C70080FEB9
:03000000020006F5
:0C000600787FE4F6D8FD7581070200B792
:00000001FF
