:1001DA00FC60DAF266B6BEE0FEF6EE3E9C7A9E8ED1
:02020800C10033
:05000300120008D2B05C
:0100080022D5
:0700F60093F5907F057E00E9
:1000FD00D3EF9400EE940040147D6E7C00ED1D70E6
:0D010D00011CED4C70F7EF1F70E61E80E343
:01011A0022C2
:0A01EA00D2B1120003C2B1020008F6
:0A01F400C2B1120003D2B1020008EC
:080165001201EA7FA01201A4BF
:10016D00D2B012000830B10BE50AC394FA50040561
:08017D000A80F2C2B002000882
:1001A400E4FEEF25E0FFC2B012000892B112000392
:0E01B4000EBE08EEC2B0120008D2B102000862
:10011B00C2B0120008D2B1120008E4FED2B0120035
:10012B0008EF25E0FDA2B1E4334DFFC2B012000889
:04013B000EBE08E804
:01013F00229D
:1001C200AC07120165AF041201A412016DAF051252
:0801D20001A412016D0201F409
:02018500AD07C4
:10018700120165AF051201A412016D1201EA7FA1E8
:0C0197001201A412016D12011B1201F4F0
:0101A3002239
:10009A0075A0FEE50975F00A84E5F09001DA120010
:1000AA00F675A0FDE50975F00A8475F00A84E5F095
:1000BA001200F675A0FBE50975F0648493F5907F4C
:0600CA00057E000200FDAE
:0A01FE00D2B1120008D2B0020008CE
:1000D0001201FEE4F509758901D2A9D2AF758C3CF5
:1000E000758AB0D28C12009A3000FAC200AD097F36
:0600F000021201C280EFC4
:03000B00020140AF
:10014000C0E0C0D0758C3C758AB00508E508B414D1
:100150000F7508000509D200E509B43C03750900D4
:05016000D0D0D0E03218
:0300000002000EED
:0C000E00787FE4F6D8FD758120020055D3
:10001A000200D0E493A3F8E493A34003F68001F22C
:10002A0008DFF48029E493A3F85407240CC8C333E7
:10003A00C4540F4420C8834004F456800146F6DFB6
:10004A00E4800B0102040810204080900208E47E3C
:10005A00019360BCA3FF543F30E509541FFEE493AB
:10006A00A360010ECF54C025E060A840B8E493A372
:10007A00FAE493A3F8E493A3C8C582C8CAC583CA9D
:10008A00F0A3C8C582C8CAC583CADFE9DEE780BE55
:01020A0000F3
:00000001FF
