:1001CC00010800020D0000020A00D3010900010C15
:0101DC000022
:1001500075B0FFD2AFD2A8D2AAD2A9D288D28A755E
:100160008901D28C758CFD758A18E580B4FE0975FD
:100170000A00750B4675A001E580B4FD09750A00FB
:10018000750B5A75A002E580B4FB09750A00750B62
:100190006E75A003E580B4F7D1750A00750B9675EE
:0401A000A00480C671
:030003000201A453
:1001A400C0E0C0D0050CE50CC394024003750C00FC
:0501B400D0D0D0E032C4
:030013000201B92E
:1001B900C0E0C0D00509E509B40203750900D0D033
:0301C900D0E03251
:03000B00020016DA
:10001600C0E0C0D075D000C000758CFD758A18E5AB
:100026000C640160030200B7C3E50E950BE50A6494
:1000360080F8E50D648098406EE5097031E5081496
:10004600600F1460111460132403701275900380FE
:100056000D759006800875900C800375900905084B
:10006600E508B40403750800750D00750E00E50972
:100076006401702DE50814600F14601114601324D8
:10008600037012759009800D75900C8008759006A6
:1000960080037590030508E508B40403750800801D
:1000A60000750D00750E00050EE50E700A050D8033
:0E00B60006750D00750E00D000D0D0D0E032DF
:030000000200C437
:0C00C400787FE4F6D8FD75810E02010B78
:1000D000020150E493A3F8E493A34003F68001F2F5
:1000E00008DFF48029E493A3F85407240CC8C33331
:1000F000C4540F4420C8834004F456800146F6DF00
:10010000E4800B01020408102040809001CCE47EC2
:10011000019360BCA3FF543F30E509541FFEE493F4
:10012000A360010ECF54C025E060A840B8E493A3BB
:10013000FAE493A3F8E493A3C8C582C8CAC583CAE6
:10014000F0A3C8C582C8CAC583CADFE9DEE780BE9E
:0101DD000021
:00000001FF
