:03000000020006F5
:0C000600787FE4F6D8FD75810802010641
:1000CC00204920204C4F5645204D435320200020E2
:0F00DC0020202020204E4555512020202020009C
:0F007E008FA07F057E0012008DD2B47F057E001B
:10008D00D3EF9400EE940040147D6E7C00ED1D7056
:0D009D00011CED4C70F7EF1F70E61E80E3B4
:0100AA002233
:08011800C2B512007EC2B42240
:08012000D2B512007EC2B42228
:1000EB00C2B47F381201187F0E1201187F0612015D
:0B00FB00187F011201187F810201181C
:100106001200EB7F647E0012008DD2AFD2A8D2AA75
:0201160080FE69
:03000300020016E2
:10001600C0E0C083C082C0D075D000C004C005C097
:1000260006C007750800E5089000CC93FF12012072
:100036007F147E0012008D0508E508C3940E40E685
:100046007F021201187FC0120118750800E508909A
:1000560000DB93FF1201207F147E0012008D05083D
:10006600E508C3941040E6D007D006D005D004D0EA
:08007600D0D082D083D0E0322B
:030013000200AB3D
:1000AB00C0E0C0D075D000C004C005C006C0077F3B
:1000BB0001120118D007D006D005D004D0D0D0E063
:0100CB003202
:00000001FF
