:03000000020ABD34
:0C0ABD00787FE4F6D8FD75810D02090079
:10080000000404C4B48C8784F484848484040000C9
:10081000000020180E042040FF00020418300000E1
:1008200020202A2AAA6A3E2BAAAAEAAA2A22200063
:100830008282454525150DFF040C142465C2420033
:100840000000F848484848FF48484848F800000079
:1008500000000F040404043F444444444F4070002B
:1008600000000202020202E2120A060200800000F8
:10087000010101010141817F01010101010101002B
:100880004020D04C434448D8301000FC0000FF000A
:1008900000003F40404244437800000720403F00B2
:1008A00020242C35E6342C2400FC2424E2222200CF
:1008B00021114D817F05592118070000FF0000001C
:1008C00000040404FF5454545454FF04040400006E
:1008D0001151494D4B49497D49494B454D590900F5
:1008E000101010FE105040FE2020FF1010F81000D5
:1008F0002020101F0808003F40404F424443700032
:100A7E00C2A2D2A1E4F580D2A000AF80C2A05307DB
:0A0A8E0080EF7003D38001C350EA2B
:010A9800223B
:100A9900AE07120A7EC2A2C2A18E80D2A00000C2F5
:020AA900A02289
:060AD2004307B8020A9977
:060AD8004307C0020A9969
:090AC90053073F430740020A995C
:060ADE0043073E020A99E5
:100AAB00AE07120A7ED2A2C2A18E80D2A00000C2D3
:020ABB00A02277
:1009FB00EF14600B14601124027017C2A4800BC299
:100A0B00A4000000D2A38007D2A4000000C2A30060
:030A1B00000022B6
:100A5F001209FBE4FDAF05120AD2E4FF120AC9E442
:0E0A6F00FCE4FF120AAB0CBC40F70DBD10E713
:010A7D002256
:100A3F00E4FDFCC3ED9FEC9E5015E4FBFA0BBB00ED
:0F0A4F00010AEB646E4A70F50DBD00010C80E4E6
:010A5E002275
:100A1E00120A7EE4FF1209FB120ADEE4FF1209FB42
:100A2E000F120ADEE4FF1209FB120A5FE4FF020A4C
:010A3E00D8DF
:02098100AC03C5
:100983001209FB53043FAF05120AD2AF04120AC97E
:10099300E4FBFA75F020E50DA42BF582E5F03AF5BA
:1009A30083E5822400F582E5833408F583E493FF2D
:1009B300120AAB0BBB00010AEB64104A70D5ED04BD
:1009C300FF120AD2AF04120AC9E4FAFB75F020E55C
:1009D3000DA42BF582E5F03AF583E5822410F58228
:1009E300E5833408F583E493FF120AAB0BBB0001E4
:0709F3000AEB64104A70D505
:0109FA0022DA
:10090000120A1EE4FF120A5FE4F508F509AF0912A6
:100910000AD8E4F50DFBFD7F02120981750D017BFC
:10092000107F02120981750D027B207F021209815E
:10093000750D037B307F02120981750D047B407FAA
:1009400001120981750D057B507F01120981750D1A
:10095000067B607F01120981750D077B707F011294
:100960000981E4FF1209FB7F327E00120A3F05096C
:10097000E50970020508C39480E5089400408E8064
:0109800087EF
:00000001FF
