:10018000FC60DAF266B6BEE0FEF6EE3E9C7A9E8E2B
:08019000FEFDFBF7EFDFBF7F6E
:0400030002080000EF
:0B019800EF1FAC0670011E4C70F62239
:1000AA00D2AFD2A9D2AB758916758CFF758AFFD2E9
:1000BA008C758D3C758BB0D28E3000FD85080B8512
:1000CA00090CE4F50DE50DC3940550EDE50D90011D
:1000DA009093F5A0AE0BAF0C7C007D0A120111744F
:1000EA00802DF58274013CF583E493F590AE0BAF55
:1000FA000C7C007D0A1201118E0B8F0C7FF47E019D
:07010A00120198050D80BEF3
:03000B0002000EE2
:0D000E00C0E00509E50970020508D0E032E8
:03001B0002016679
:10016600C0E0C0D0758D3C758BB0050AE50AB414A5
:0A01760004C2AFD200D0D0D0E032B6
:0300000002001EDD
:0C001E00787FE4F6D8FD758120020065B3
:10011100BC000BBE0029EF8DF084FFADF022E4CCD2
:10012100F875F008EF2FFFEE33FEEC33FCEE9DEC9B
:10013100984005FCEE9DFE0FD5F0E9E4CEFD22EDE1
:10014100F8F5F0EE8420D21CFEADF075F008EF2F2B
:10015100FFED33FD4007985006D5F0F222C398FD1C
:050161000FD5F0EA22B9
:10002A000200AAE493A3F8E493A34003F68001F242
:10003A0008DFF48029E493A3F85407240CC8C333D7
:10004A00C4540F4420C8834004F456800146F6DFA6
:10005A00E4800B0102040810204080900003E47E33
:10006A00019360BCA3FF543F30E509541FFEE4939B
:10007A00A360010ECF54C025E060A840B8E493A362
:10008A00FAE493A3F8E493A3C8C582C8CAC583CA8D
:10009A00F0A3C8C582C8CAC583CADFE9DEE780BE45
:0100070000F8
:00000001FF
