:1003DA005149414E472D44412D514900312D4C651B
:1003EA006520322D436C6561726C6F7665372033F8
:1003FA002D49626F7920342D4D65696B6F20352D3B
:10040A0052617920362D536F756E7420372D4C61E9
:10041A006E67786920382D4D4C584720392D4B612D
:10042A007273612031302D5869616F6875203131DE
:10043A002D557A692031322D4D696E672031332D61
:10044A004A61636B6C6F76652031342D42616F6C43
:10045A00616E2031352D526F6F6B69652000202047
:10046A002020202020202020202020202020202082
:10047A002020202020202020202020202020202072
:0B048A00202020202020202020200027
:100C45000A083F065B4F666D7D077F6F021700142C
:10049500E4F51C120C22120AF6E4F519E51990038D
:1004A500DA93FF120B1C7F0A7E00120A980519E5E4
:1004B50019C3940B40E67FC0120B30120BFC120CD3
:1004C5000F12096012063E1205B6D3E5189409E528
:1004D500179400500D7580FFAF18AE171201C612A4
:1004E5000C34E5126401702BF519AF19FE1206B52F
:1004F5001202D98F19E519601A7E001206B57F2CF4
:100505007E01120A98AF1912000E051C7F0A7E00A3
:10051500120A98E51CB403A3E4F512C28C12077EF7
:05052500E4F51C8096C6
:100C2200758901758C3C758AB0D2AFD2A9C28C028B
:020C32000C3480
:100AF600D2A2D2A3D2A47F38120B307F08120B30B9
:0F0B06007F01120B307F06120B307F0C020B3079
:100B3000D2A2D2A3D2A4C2A6C2A5C2A78F80D2A796
:0A0B40007F057E00120A98C2A7226A
:070B15009003E6E51A93FFCF
:100B1C00D2A6C2A5C2A78F80D2A77F057E00120ADB
:040B2C0098C2A722A2
:10000E00EFB4100040030201C590001EF8282873BB
:10001E0002004E02006D02008402009B0200B2023A
:10002E0000C90200E00200F702010E0201250201E2
:10003E003C02015302016A0201810201980201AFE2
:10004E007FC0120B30E4F51A900468120B187F0A69
:10005E007E00120A98051AE51AC3942840EA22E493
:10006E00F51A120B157F0A7E00120A98051AE51A68
:10007E00C3940640ED22751A06120B157F0A7E00F8
:10008E00120A98051AE51AC3941340ED22751A1335
:10009E00120B157F0A7E00120A98051AE51AC394F0
:1000AE001A40ED22751A1A120B157F0A7E00120ADB
:1000BE0098051AE51AC3942240ED22751A22120BE6
:1000CE00157F0A7E00120A98051AE51AC394284075
:1000DE00ED22751A28120B157F0A7E00120A98055A
:1000EE001AE51AC3943040ED22751A30120B157FA3
:1000FE000A7E00120A98051AE51AC3943940ED22B9
:10010E00751A39120B157F0A7E00120A98051AE528
:10011E001AC3944040ED22751A40120B157F0A7EC9
:10012E0000120A98051AE51AC3944840ED22751A72
:10013E0048120B157F0A7E00120A98051AE51AC39B
:10014E00945240ED22751A52120B157F0A7E001240
:10015E000A98051AE51AC3945940ED22751A5912D8
:10016E000B157F0A7E00120A98051AE51AC39461D0
:10017E0040ED22751A61120B157F0A7E00120A9845
:10018E00051AE51AC3946D40ED22751A6D120B1502
:10019E007F0A7E00120A98051AE51AC3947740ED7D
:1001AE0022751A77120B157F0A7E00120A98051A0D
:0801BE00E51AC3948140ED2213
:10077E001202D98F19E519D394004047E519941048
:10078E0050417FD07E07120A98E4F51D7F18120B98
:10079E00307F2C7E01120A98051DE51DD39414405E
:1007AE00EBE4F51D7F2C7E01120A98E4F51D7F1CEB
:1007BE00120B307F2C7E01120A98051DE51DD39475
:0307CE001440EBE9
:0107D1002205
:100BFC0020B00F7F0A7E00120A9820B005751201F2
:030C0C00D28C2265
:100C0F0020B10F7F0A7E00120A9820B105E4F51279
:030C1F00C28C2262
:1009600020B2267F0A7E00120A9820B21CC28CE4B4
:10097000F512F517751814F5191205B6E4FF1200F3
:0A0980000E7FC0120B30120C34225F
:10063E0020B3737F0A7E00120A9820B36920B36636
:10064E001202D98F1DE51DC394004017E51D940AB3
:10065E005011E51D75F00AA4751700F518FFAE17B9
:10066E001205BAE51DB40E147FC87E00120A98E575
:10067E001DB40E08E518151870021517E51DB40FF8
:10068E00147FC87E00120A98E51DB40F080518E500
:10069E001870020517E518646445177004F517F510
:0606AE00181205B680974A
:0106B4002223
:040A94007F017E0060
:100A9800D3EF9400EE940040147D787C00ED1D7037
:0D0AA800011CED4C70F7EF1F70E61E80E39F
:010AB500221E
:1006B500AB07AA06C3EA9400401CEB940AEA94002F
:1006C5005014C2A2D2A3C2A474082FF8E6F5807F05
:1006D500057E00120A98C3EB940AEA940040447C14
:1006E500007D0AAF03AE021207298F13AE02AF03D6
:1006F5007C007D0A1207298D16D2A2D2A3C2A4744A
:10070500082513F8E6F5807F2C7E01120A98C2A20F
:10071500D2A3C2A474082516F8E6F5807F057E00ED
:04072500120A9822FA
:0405B600AF18AE17B5
:1005BA00AB07AA06C3EA9400402CEB940AEA94001B
:1005CA005024C2A2C2A3C2A474082FF8E6F5807F01
:1005DA00057E00120A98D2A2C2A3C2A48508807F0F
:1005EA00057E00120A98C3EB940AEA940040447C00
:1005FA00007D0AAF03AE021207298F13AE02AF03C2
:10060A007C007D0A1207298D16C2A2C2A3C2A47455
:10061A00082516F8E6F5807F057E00120A98D2A210
:10062A00C2A3C2A474082513F8E6F5807F057E00EC
:04063A00120A9822E6
:1002D90075907FAF9053070FEF640F60327F0A7EEE
:1002E90000120A9875907FAF9053070FEF640F6063
:1002F9001EEF24F5600F24FE600F146010240770B0
:100309000EE4FB800A7B0180067B0280027B037579
:1003190090BFAF9053070FEF640F60327F0A7E00E2
:10032900120A987590BFAF9053070FEF640F601EC4
:10033900EF24F5600F24FE600F1460102407700E7F
:100349007B04800A7B0580067B0680027B0775900B
:10035900DFAF9053070FEF640F60327F0A7E001200
:100369000A987590DFAF9053070FEF640F601EEF87
:1003790024F5600F24FE600F1460102407700E7BB3
:1003890008800A7B0980067B0A80027B0B7590EF47
:10039900AF9053070FEF640F60327F0A7E00120A95
:1003A900987590EFAF9053070FEF640F601EEF241D
:1003B900F5600F24FE600F1460102407700E7B0C8B
:1003C900800A7B0D80067B0E80027B0FEBFF7E008F
:0103D9002201
:1001C600D2A2D2A3D2A47580FFEE60030202D8EFBA
:1001D600B40A0040030202D89001E5F82828730209
:1001E600020302021502021B02023302024B020242
:1001F6006302027B0202920202A90202C0120BD41F
:10020600120A94120A6E120A94120AD60202A11255
:100216000BC00202D5120A48120A941208FE120AEC
:10022600941208CC120A94120A220202D512089AD3
:10023600120A94120868120A94120836120A9412C4
:100246000BAC0202D5120AB6120A941209FC120A63
:10025600941209D6120A94120B980202D51209B00A
:10026600120A94120804120A941207D2120A94125D
:10027600098A0202D5120BD4120A94120804120A31
:10028600941207D2120A9412098A8043120B7E1224
:100296000A94120B64120A94120B4A120A94120B55
:1002A600E8802C120BD4120A94120804120A941233
:1002B60007D2120A94120BE880151209B0120A949A
:1002C600120804120A941207D2120A94120BE812A8
:0302D6000A942265
:100B4A00D2B4D2B6C2B6E4FFC2B4D2B6C2B60FBFEE
:090B5A0007F6D2B5C2B57580F7AB
:010B6300226F
:100B6400D2B4D2B6C2B6E4FFC2B4D2B6C2B60FBFD4
:090B740007F6D2B5C2B57580EF99
:010B7D002255
:100B7E00D2B4D2B6C2B6E4FFC2B4D2B6C2B60FBFBA
:090B8E0007F6D2B5C2B57580DF8F
:010B9700223B
:10098A00D2B4D2B6C2B6E4FFC2B4D2B6C2B60FBFB0
:10099A0002F6E4FFD2B4D2B6C2B60FBF05F6D2B59C
:0509AA00C2B57580FBE1
:0109AF002225
:1007D200D2B4D2B6C2B6E4FFC2B4D2B6C2B60FBF6A
:1007E20002F6D2B4D2B6C2B6E4FFC2B4D2B6C2B630
:1007F2000FBF03F6D2B4D2B6C2B6D2B5C2B57580B7
:01080200F7FE
:0108030022D2
:10080400D2B4D2B6C2B6E4FFC2B4D2B6C2B60FBF37
:1008140002F6D2B4D2B6C2B6E4FFC2B4D2B6C2B6FD
:100824000FBF03F6D2B4D2B6C2B6D2B5C2B5758084
:01083400EFD4
:0108350022A0
:1009B000E4FFD2B4D2B6C2B60FBF04F6E4FFC2B4AD
:1009C000D2B6C2B60FBF03F6D2B4D2B6C2B6D2B553
:0509D000C2B57580DFD7
:0109D50022FF
:100B9800E4FFD2B4D2B6C2B60FBF08F6D2B5C2B51A
:030BA8007580FB5A
:010BAB002227
:1009D600E4FFC2B4D2B6C2B60FBF03F6D2B4D2B6E3
:1009E600C2B6E4FFC2B4D2B6C2B60FBF04F6D2B5E1
:0509F600C2B57580F799
:0109FB0022D9
:1009FC00E4FFC2B4D2B6C2B60FBF03F6D2B4D2B6BD
:100A0C00C2B6E4FFC2B4D2B6C2B60FBF04F6D2B5BA
:050A1C00C2B57580EF7A
:010A210022B2
:100AB600E4FFD2B4D2B6C2B60FBF04F6E4FFC2B4A6
:0F0AC600D2B6C2B60FBF04F6D2B5C2B57580DF87
:010AD50022FE
:100BAC00E4FFD2B4D2B6C2B60FBF08F6D2B5C2B506
:030BBC007580FB46
:010BBF002213
:10083600D2B4D2B6C2B6E4FFC2B4D2B6C2B60FBF05
:1008460002F6D2B4D2B6C2B6E4FFC2B4D2B6C2B6CB
:100856000FBF03F6D2B4D2B6C2B6D2B5C2B5758052
:01086600F79A
:01086700226E
:10086800D2B4D2B6C2B6E4FFC2B4D2B6C2B60FBFD3
:1008780002F6D2B4D2B6C2B6E4FFC2B4D2B6C2B699
:100888000FBF03F6D2B4D2B6C2B6D2B5C2B5758020
:01089800EF70
:01089900223C
:10089A00D2B4D2B6C2B6E4FFC2B4D2B6C2B60FBFA1
:1008AA0002F6D2B4D2B6C2B6E4FFC2B4D2B6C2B667
:1008BA000FBF03F6D2B4D2B6C2B6D2B5C2B57580EE
:0108CA00DF4E
:0108CB00220A
:100A2200E4FFD2B4D2B6C2B60FBF04F6E4FFC2B43A
:100A3200D2B6C2B60FBF03F6D2B4D2B6C2B6D2B5E0
:050A4200C2B57580FB48
:010A4700228C
:1008CC00D2B4D2B6C2B6E4FFC2B4D2B6C2B60FBF6F
:1008DC0002F6D2B4D2B6C2B6E4FFC2B4D2B6C2B635
:1008EC000FBF03F6D2B4D2B6C2B6D2B5C2B57580BC
:0108FC00F704
:0108FD0022D8
:1008FE00D2B4D2B6C2B6E4FFC2B4D2B6C2B60FBF3D
:10090E0002F6D2B4D2B6C2B6E4FFC2B4D2B6C2B602
:10091E000FBF03F6D2B4D2B6C2B6D2B5C2B5758089
:01092E00EFD9
:01092F0022A5
:100A4800D2B4D2B6C2B6E4FFC2B4D2B6C2B60FBFF1
:100A580002F6E4FFD2B4D2B6C2B60FBF05F6D2B5DD
:050A6800C2B57580DF3E
:010A6D002266
:100BC000E4FFD2B4D2B6C2B60FBF08F6D2B5C2B5F2
:030BD0007580F736
:010BD30022FF
:100BD400E4FFD2B4D2B6C2B60FBF08F6D2B5C2B5DE
:030BE4007580DF3A
:010BE70022EB
:100A6E00D2B4D2B6C2B6D2B4D2B6C2B6E4FFC2B413
:100A7E00D2B6C2B60FBF06F6D2B4D2B6C2B6D2B591
:050A8E00C2B57580EF08
:010A93002240
:100AD600D2B4D2B6C2B6E4FFC2B4D2B6C2B60FBF63
:0F0AE60006F6D2B4D2B6C2B6D2B5C2B57580F795
:010AF50022DE
:100BE800E4FFD2B4D2B6C2B60FBF08F6D2B5C2B5CA
:030BF8007580FB0A
:010BFB0022D7
:100C3400E4FFC2B4D2B6C2B60FBF08F6D2B5C2B58D
:010C4400228D
:03000B00020930B7
:04093000C0E0C0D093
:10093400758C3C758AB0051BE512B4011AE51BB42D
:100944001415E518151870021517751B00E51845E0
:07095400177004C28CF512BC
:05095B00D0D0D0E03215
:0300000002052ACC
:0C052A00787FE4F6D8FD75811D02057194
:10072900BC000BBE0029EF8DF084FFADF022E4CCB4
:10073900F875F008EF2FFFEE33FEEC33FCEE9DEC7D
:10074900984005FCEE9DFE0FD5F0E9E4CEFD22EDC3
:10075900F8F5F0EE8420D21CFEADF075F008EF2F0D
:10076900FFED33FD4007985006D5F0F222C398FDFE
:050779000FD5F0EA229B
:10053600020495E493A3F8E493A34003F68001F242
:1005460008DFF48029E493A3F85407240CC8C333C6
:10055600C4540F4420C8834004F456800146F6DF95
:10056600E4800B0102040810204080900C45E47ED4
:10057600019360BCA3FF543F30E509541FFEE4938A
:10058600A360010ECF54C025E060A840B8E493A351
:10059600FAE493A3F8E493A3C8C582C8CAC583CA7C
:1005A600F0A3C8C582C8CAC583CADFE9DEE780BE34
:010C5500009E
:00000001FF
