:0300F800010800FC
:030003000200FCFC
:0300FC00050832C2
:10009200E508B401187599013099FDC299C2B5C23B
:1000A2009D3098FDC2988599A0D29DD2B5E508B43D
:1000B20002187599023099FDC299C29DC2B5309855
:1000C200FDC2988599A0D29DD2B5E508B403037507
:0500D2000801D29D228F
:1000D70075A0FF758920758BFD758DFDE4F587D2B9
:1000E7008E7598F8D2AFD2A8D288D2B51200928076
:0100F700FB0D
:03000000020006F5
:0C000600787FE4F6D8FD75810802004DFB
:100012000200D7E493A3F8E493A34003F68001F22D
:1000220008DFF48029E493A3F85407240CC8C333EF
:10003200C4540F4420C8834004F456800146F6DFBE
:10004200E4800B01020408102040809000F8E47E56
:10005200019360BCA3FF543F30E509541FFEE493B3
:10006200A360010ECF54C025E060A840B8E493A37A
:10007200FAE493A3F8E493A3C8C582C8CAC583CAA5
:10008200F0A3C8C582C8CAC583CADFE9DEE780BE5D
:0100FB000004
:00000001FF
