:03000300010800F1
:1000D600EFD39400400B7E8E7D02DDFEDEFA1F809C
:0100E600EF2A
:0100E70022F6
:10009A00758901758C3C758AB0D2AFD2A9D28C30E1
:0F00AA0000FDC2907F641200D6D290C20080F099
:03000B000200B937
:1000B900C0E0C0D0758C3C758AB00508E508C394CA
:0D00C900144005750800D200D0D0D0E03200
:0300000002000EED
:0C000E00787FE4F6D8FD758120020055D3
:10001A0002009AE493A3F8E493A34003F68001F262
:10002A0008DFF48029E493A3F85407240CC8C333E7
:10003A00C4540F4420C8834004F456800146F6DFB6
:10004A00E4800B0102040810204080900003E47E43
:10005A00019360BCA3FF543F30E509541FFEE493AB
:10006A00A360010ECF54C025E060A840B8E493A372
:10007A00FAE493A3F8E493A3C8C582C8CAC583CA9D
:10008A00F0A3C8C582C8CAC583CADFE9DEE780BE55
:0100060000F9
:00000001FF
